{
  "address": "0xDbe6E6A1615908156Cf790db9570A80b520906Ef",
  "abi": [
    {
      "inputs": [
        {
          "internalType": "contract IStarknetMessaging",
          "name": "_starknetMessaging",
          "type": "address"
        },
        {
          "internalType": "uint256",
          "name": "_gateway",
          "type": "uint256"
        }
      ],
      "stateMutability": "nonpayable",
      "type": "constructor"
    },
    {
      "inputs": [
        {
          "components": [
            {
              "internalType": "contract IERC721",
              "name": "token",
              "type": "address"
            },
            {
              "internalType": "uint256",
              "name": "tokenId",
              "type": "uint256"
            },
            {
              "internalType": "uint256",
              "name": "minter",
              "type": "uint256"
            },
            {
              "internalType": "uint256",
              "name": "nonce",
              "type": "uint256"
            }
          ],
          "internalType": "struct Commit721",
          "name": "commit",
          "type": "tuple"
        },
        {
          "internalType": "uint256[]",
          "name": "payload",
          "type": "uint256[]"
        }
      ],
      "name": "claimEscrow",
      "outputs": [],
      "stateMutability": "nonpayable",
      "type": "function"
    },
    {
      "inputs": [],
      "name": "escrowBytecodeHash",
      "outputs": [
        {
          "internalType": "bytes32",
          "name": "",
          "type": "bytes32"
        }
      ],
      "stateMutability": "view",
      "type": "function"
    },
    {
      "inputs": [],
      "name": "gateway",
      "outputs": [
        {
          "internalType": "uint256",
          "name": "",
          "type": "uint256"
        }
      ],
      "stateMutability": "view",
      "type": "function"
    },
    {
      "inputs": [
        {
          "internalType": "bytes32",
          "name": "commitHash",
          "type": "bytes32"
        }
      ],
      "name": "getEscrowAddress",
      "outputs": [
        {
          "internalType": "address",
          "name": "",
          "type": "address"
        }
      ],
      "stateMutability": "view",
      "type": "function"
    },
    {
      "inputs": [],
      "name": "starknetMessaging",
      "outputs": [
        {
          "internalType": "contract IStarknetMessaging",
          "name": "",
          "type": "address"
        }
      ],
      "stateMutability": "view",
      "type": "function"
    }
  ],
  "transactionHash": "0xe9cd84d62ebb558dfe31dec99d15bbca99cd1f1925b2f11b01dbd7c53898bfb0",
  "args": [
    "0xde29d060D45901Fb19ED6C6e959EB22d8626708e",
    "2535956900665656528025800396052710380183946152363184048073638625479360380997"
  ],
  "numDeployments": 1,
  "solcInputHash": "7b121ecb673891be7cd3ba3c1f8a4e30",
  "bytecode": "0x60e060405234801561001057600080fd5b506040516109cd3803806109cd83398101604081905261002f91610083565b6001600160a01b03821660a05260c081905260405161005060208201610077565b601f1982820381018352601f90910116604052805160209190910120608052506100bd9050565b60ed806108e083390190565b6000806040838503121561009657600080fd5b82516001600160a01b03811681146100ad57600080fd5b6020939093015192949293505050565b60805160a05160c0516107e26100fe60003960008181607101526101ab01526000818160e7015261017e01526000818160ab015261041a01526107e26000f3fe608060405234801561001057600080fd5b50600436106100675760003560e01c80632916a182116100505780632916a182146100cd57806353ef4311146100e2578063cfb9b8bf1461012e57600080fd5b8063116191b61461006c5780631ff01338146100a6575b600080fd5b6100937f000000000000000000000000000000000000000000000000000000000000000081565b6040519081526020015b60405180910390f35b6100937f000000000000000000000000000000000000000000000000000000000000000081565b6100e06100db3660046104f8565b610141565b005b6101097f000000000000000000000000000000000000000000000000000000000000000081565b60405173ffffffffffffffffffffffffffffffffffffffff909116815260200161009d565b61010961013c366004610586565b610412565b6040517f2c9dd5c000000000000000000000000000000000000000000000000000000000815273ffffffffffffffffffffffffffffffffffffffff7f00000000000000000000000000000000000000000000000000000000000000001690632c9dd5c0906101d7907f0000000000000000000000000000000000000000000000000000000000000000908690869060040161059f565b6020604051808303816000875af11580156101f6573d6000803e3d6000fd5b505050506040513d601f19601f8201168201806040525081019061021a91906105fb565b5060008282600081811061023057610230610614565b90506020020135905060008383600181811061024e5761024e610614565b6020029190910135915060009050610278816fffffffffffffffffffffffffffffffff8516610643565b905060008585600281811061028f5761028f610614565b9050602002013590506000868660038181106102ad576102ad610614565b905060200201359050826102c089610445565b1461032c576040517f08c379a000000000000000000000000000000000000000000000000000000000815260206004820152601360248201527f496e76616c696420636f6d6d697420686173680000000000000000000000000060448201526064015b60405180910390fd5b81886040013514610399576040517f08c379a000000000000000000000000000000000000000000000000000000000815260206004820152600e60248201527f496e76616c6964206d696e7465720000000000000000000000000000000000006044820152606401610323565b826103a760208a018a610682565b8960200135836040516103b9906104ec565b73ffffffffffffffffffffffffffffffffffffffff9384168152602081019290925290911660408201526060018190604051809103906000f5905080158015610406573d6000803e3d6000fd5b50505050505050505050565b600061043f827f0000000000000000000000000000000000000000000000000000000000000000306104c2565b92915050565b60006104546020830183610682565b604080517fffffffffffffffffffffffffffffffffffffffff000000000000000000000000606093841b166020828101919091528501356034820152908401356054820152908301356074820152609401604051602081830303815290604052805190602001209050919050565b6000604051836040820152846020820152828152600b8101905060ff815360559020949350505050565b60ed806106c083390190565b600080600083850360a081121561050e57600080fd5b608081121561051c57600080fd5b50839250608084013567ffffffffffffffff8082111561053b57600080fd5b818601915086601f83011261054f57600080fd5b81358181111561055e57600080fd5b8760208260051b850101111561057357600080fd5b6020830194508093505050509250925092565b60006020828403121561059857600080fd5b5035919050565b8381526040602082015281604082015260007f07ffffffffffffffffffffffffffffffffffffffffffffffffffffffffffffff8311156105de57600080fd5b8260051b8085606085013760009201606001918252509392505050565b60006020828403121561060d57600080fd5b5051919050565b7f4e487b7100000000000000000000000000000000000000000000000000000000600052603260045260246000fd5b6000821982111561067d577f4e487b7100000000000000000000000000000000000000000000000000000000600052601160045260246000fd5b500190565b60006020828403121561069457600080fd5b813573ffffffffffffffffffffffffffffffffffffffff811681146106b857600080fd5b939250505056fe6080604052348015600f57600080fd5b506040516100ed3803806100ed833981016040819052602c9160ae565b6040516323b872dd60e01b81523060048201526001600160a01b038281166024830152604482018490528416906323b872dd90606401600060405180830381600087803b158015607b57600080fd5b505af1158015608e573d6000803e3d6000fd5b50600092505050ff5b6001600160a01b038116811460ab57600080fd5b50565b60008060006060848603121560c257600080fd5b835160cb816097565b60208501516040860151919450925060e1816097565b80915050925092509256fea264697066735822122013cfb6b1262a26fdd012a0e3db8efed38d1885735ee4f998f44d50847de45cb064736f6c634300080b00336080604052348015600f57600080fd5b506040516100ed3803806100ed833981016040819052602c9160ae565b6040516323b872dd60e01b81523060048201526001600160a01b038281166024830152604482018490528416906323b872dd90606401600060405180830381600087803b158015607b57600080fd5b505af1158015608e573d6000803e3d6000fd5b50600092505050ff5b6001600160a01b038116811460ab57600080fd5b50565b60008060006060848603121560c257600080fd5b835160cb816097565b60208501516040860151919450925060e1816097565b80915050925092509256fe",
  "devdoc": {
    "details": "contract intended to be deployed to L1",
    "kind": "dev",
    "methods": {
      "claimEscrow((address,uint256,uint256,uint256),uint256[])": {
        "details": "this is the only codepath that releases NFTs from escrow"
      }
    },
    "version": 1
  },
  "userdoc": {
    "kind": "user",
    "methods": {},
    "version": 1
  },
  "storageLayout": {
    "storage": [],
    "types": null
  }
}